{"abi":[{"type":"function","name":"approve","inputs":[{"name":"spender","type":"address","internalType":"address"},{"name":"id","type":"uint256","internalType":"uint256"}],"outputs":[],"stateMutability":"payable"},{"type":"function","name":"balanceOf","inputs":[{"name":"owner","type":"address","internalType":"address"}],"outputs":[{"name":"","type":"uint256","internalType":"uint256"}],"stateMutability":"view"},{"type":"function","name":"getApproved","inputs":[{"name":"id","type":"uint256","internalType":"uint256"}],"outputs":[{"name":"","type":"address","internalType":"address"}],"stateMutability":"view"},{"type":"function","name":"initialize","inputs":[{"name":"name_","type":"string","internalType":"string"},{"name":"symbol_","type":"string","internalType":"string"}],"outputs":[],"stateMutability":"nonpayable"},{"type":"function","name":"isApprovedForAll","inputs":[{"name":"owner","type":"address","internalType":"address"},{"name":"operator","type":"address","internalType":"address"}],"outputs":[{"name":"","type":"bool","internalType":"bool"}],"stateMutability":"view"},{"type":"function","name":"name","inputs":[],"outputs":[{"name":"","type":"string","internalType":"string"}],"stateMutability":"view"},{"type":"function","name":"ownerOf","inputs":[{"name":"id","type":"uint256","internalType":"uint256"}],"outputs":[{"name":"owner","type":"address","internalType":"address"}],"stateMutability":"view"},{"type":"function","name":"safeTransferFrom","inputs":[{"name":"from","type":"address","internalType":"address"},{"name":"to","type":"address","internalType":"address"},{"name":"id","type":"uint256","internalType":"uint256"}],"outputs":[],"stateMutability":"payable"},{"type":"function","name":"safeTransferFrom","inputs":[{"name":"from","type":"address","internalType":"address"},{"name":"to","type":"address","internalType":"address"},{"name":"id","type":"uint256","internalType":"uint256"},{"name":"data","type":"bytes","internalType":"bytes"}],"outputs":[],"stateMutability":"payable"},{"type":"function","name":"setApprovalForAll","inputs":[{"name":"operator","type":"address","internalType":"address"},{"name":"approved","type":"bool","internalType":"bool"}],"outputs":[],"stateMutability":"nonpayable"},{"type":"function","name":"supportsInterface","inputs":[{"name":"interfaceId","type":"bytes4","internalType":"bytes4"}],"outputs":[{"name":"","type":"bool","internalType":"bool"}],"stateMutability":"view"},{"type":"function","name":"symbol","inputs":[],"outputs":[{"name":"","type":"string","internalType":"string"}],"stateMutability":"view"},{"type":"function","name":"tokenURI","inputs":[{"name":"id","type":"uint256","internalType":"uint256"}],"outputs":[{"name":"","type":"string","internalType":"string"}],"stateMutability":"view"},{"type":"function","name":"transferFrom","inputs":[{"name":"from","type":"address","internalType":"address"},{"name":"to","type":"address","internalType":"address"},{"name":"id","type":"uint256","internalType":"uint256"}],"outputs":[],"stateMutability":"payable"},{"type":"event","name":"Approval","inputs":[{"name":"_owner","type":"address","indexed":true,"internalType":"address"},{"name":"_approved","type":"address","indexed":true,"internalType":"address"},{"name":"_tokenId","type":"uint256","indexed":true,"internalType":"uint256"}],"anonymous":false},{"type":"event","name":"ApprovalForAll","inputs":[{"name":"_owner","type":"address","indexed":true,"internalType":"address"},{"name":"_operator","type":"address","indexed":true,"internalType":"address"},{"name":"_approved","type":"bool","indexed":false,"internalType":"bool"}],"anonymous":false},{"type":"event","name":"Transfer","inputs":[{"name":"_from","type":"address","indexed":true,"internalType":"address"},{"name":"_to","type":"address","indexed":true,"internalType":"address"},{"name":"_tokenId","type":"uint256","indexed":true,"internalType":"uint256"}],"anonymous":false}],"bytecode":{"object":"0x6080806040523461001657611525908161001c8239f35b600080fdfe608060408181526004918236101561001657600080fd5b600092833560e01c91826301ffc9a714610e835750816306fdde0314610db4578163081812fc14610d59578163095ea7b314610c7057816323b872dd14610c5d57816342842e0e14610b625781634cd88b76146106e55781636352211e1461062257816370a082311461055957816395d89b411461042b578163a22cb4651461035c578163b88d4fde146101d557508063c87b56dd1461013a5763e985e9c5146100bf57600080fd5b3461013657807ffffffffffffffffffffffffffffffffffffffffffffffffffffffffffffffffc3601126101365760ff816020936100fb610fce565b610103610ff6565b73ffffffffffffffffffffffffffffffffffffffff91821683526005875283832091168252855220549151911615158152f35b5080fd5b5034610136576020807ffffffffffffffffffffffffffffffffffffffffffffffffffffffffffffffffc3601126101d1579181519283916020835260605191826020850152815b8381106101bc575050828201840152601f017fffffffffffffffffffffffffffffffffffffffffffffffffffffffffffffffe0168101030190f35b60808101518782018701528694508101610181565b8280fd5b905060807ffffffffffffffffffffffffffffffffffffffffffffffffffffffffffffffffc3601126101d157610209610fce565b90610212610ff6565b60443560643567ffffffffffffffff811161035857366023820112156103585761024590369060248187013591016110e9565b91610251828287611224565b803b15948515610269575b876102668761148a565b80f35b6020939495508773ffffffffffffffffffffffffffffffffffffffff80926102d98a51988997889687947f150b7a02000000000000000000000000000000000000000000000000000000009d8e875233908701521660248501526044840152608060648401526084830190610f70565b0393165af192831561034f5750610266927fffffffff00000000000000000000000000000000000000000000000000000000918591610320575b501614388080808061025c565b610342915060203d602011610348575b61033a8183611079565b810190611452565b38610313565b503d610330565b513d85823e3d90fd5b8680fd5b50503461013657807ffffffffffffffffffffffffffffffffffffffffffffffffffffffffffffffffc36011261013657610394610fce565b906024359081151580920361042757338452600560205273ffffffffffffffffffffffffffffffffffffffff8185209316928385526020528084207fffffffffffffffffffffffffffffffffffffffffffffffffffffffffffffff0081541660ff8416179055519081527f17307eab39ab6107e8899845ad3d59bd9653f200f220920489ca2b5937696c3160203392a380f35b8380fd5b82843461055657807ffffffffffffffffffffffffffffffffffffffffffffffffffffffffffffffffc360112610556578151918282600193600154946104708661116c565b91828552602096876001821691826000146105115750506001146104b5575b5050506104b192916104a2910385611079565b51928284938452830190610f70565b0390f35b9190869350600183527fb10e2d527612073b26eecdfd717e6a320cf44b4afac2b0732d9fcbe2b7fa0cf65b8284106104f957505050820101816104a26104b161048f565b8054848a0186015288955087949093019281016104e0565b7fffffffffffffffffffffffffffffffffffffffffffffffffffffffffffffff00168782015293151560051b860190930193508492506104a291506104b1905061048f565b80fd5b839150346101365760207ffffffffffffffffffffffffffffffffffffffffffffffffffffffffffffffffc3601126101365773ffffffffffffffffffffffffffffffffffffffff6105a8610fce565b169081156105c55760208480858581526003845220549051908152f35b60649060208551917f08c379a0000000000000000000000000000000000000000000000000000000008352820152600c60248201527f5a45524f5f4144445245535300000000000000000000000000000000000000006044820152fd5b905082346105565760207ffffffffffffffffffffffffffffffffffffffffffffffffffffffffffffffffc360112610556578273ffffffffffffffffffffffffffffffffffffffff91833581526002602052205416908115610688575060209151908152f35b60649060208451917f08c379a0000000000000000000000000000000000000000000000000000000008352820152600a60248201527f4e4f545f4d494e544544000000000000000000000000000000000000000000006044820152fd5b8391503461013657827ffffffffffffffffffffffffffffffffffffffffffffffffffffffffffffffffc3601126101365767ffffffffffffffff813581811161042757610735903690840161114e565b91602435828111610b5e5761074d903690830161114e565b9460ff60065416610b0157508251828111610ad5578061076d865461116c565b94601f95868111610a6a575b506020908683116001146109af5787926109a4575b50507fffffffffffffffffffffffffffffffffffffffffffffffffffffffffffffffff8260011b9260031b1c19161784555b845191821161097857506001916107d7835461116c565b818111610916575b50602090821160011461085f57839482939492610854575b50507fffffffffffffffffffffffffffffffffffffffffffffffffffffffffffffffff82841b9260031b1c19161781555b7fffffffffffffffffffffffffffffffffffffffffffffffffffffffffffffff00600654161760065580f35b0151905084806107f7565b8284527fb10e2d527612073b26eecdfd717e6a320cf44b4afac2b0732d9fcbe2b7fa0cf6907fffffffffffffffffffffffffffffffffffffffffffffffffffffffffffffffe08316855b81811061090057509583859697106108c9575b505050811b018155610828565b01517fffffffffffffffffffffffffffffffffffffffffffffffffffffffffffffffff60f88460031b161c191690558480806108bc565b87830151845592850192602092830192016108a9565b8385527fb10e2d527612073b26eecdfd717e6a320cf44b4afac2b0732d9fcbe2b7fa0cf68280850160051c8201926020861061096f575b0160051c019084905b8281106109645750506107df565b868155018490610956565b9250819261094d565b8360416024927f4e487b7100000000000000000000000000000000000000000000000000000000835252fd5b01519050878061078e565b8780527f290decd9548b62a8d60345a988386fc84ba6bc95484008f6362f93160ef3e563927fffffffffffffffffffffffffffffffffffffffffffffffffffffffffffffffe016885b818110610a525750908460019594939210610a1b575b505050811b0184556107c0565b01517fffffffffffffffffffffffffffffffffffffffffffffffffffffffffffffffff60f88460031b161c19169055878080610a0e565b929360206001819287860151815501950193016109f8565b9091508680527f290decd9548b62a8d60345a988386fc84ba6bc95484008f6362f93160ef3e5638680850160051c82019260208610610acc575b9085949392910160051c01905b818110610abe5750610779565b888155849350600101610ab1565b92508192610aa4565b6024856041847f4e487b7100000000000000000000000000000000000000000000000000000000835252fd5b90602060649251917f08c379a0000000000000000000000000000000000000000000000000000000008352820152601360248201527f414c52454144595f494e495449414c495a4544000000000000000000000000006044820152fd5b8480fd5b9050610b6d36611019565b90610b7b8282859695611224565b803b15938415610b90575b866102668661148a565b60209293945060a4908773ffffffffffffffffffffffffffffffffffffffff8094895197889687957f150b7a02000000000000000000000000000000000000000000000000000000009b8c88523390880152166024860152604485015260806064850152826084850152165af192831561034f5750610266927fffffffff00000000000000000000000000000000000000000000000000000000918591610c3e575b50161438808080610b86565b610c57915060203d6020116103485761033a8183611079565b38610c32565b83610266610c6a36611019565b91611224565b9050817ffffffffffffffffffffffffffffffffffffffffffffffffffffffffffffffffc3601126101d157610ca3610fce565b9060243592838552600260205273ffffffffffffffffffffffffffffffffffffffff90818187205416928333148015610d3a575b610ce0906111bf565b8587526020528520921691827fffffffffffffffffffffffff00000000000000000000000000000000000000008254161790557f8c5be1e5ebec7d5bd14f71427d1e84f3dd0314c0f7b2291e5b200ac8c7c3b9258480a480f35b508387526005602090815282882033895290528187205460ff16610cd7565b9050346101d15760207ffffffffffffffffffffffffffffffffffffffffffffffffffffffffffffffffc3601126101d157816020938273ffffffffffffffffffffffffffffffffffffffff9335825285522054169051908152f35b82843461055657807ffffffffffffffffffffffffffffffffffffffffffffffffffffffffffffffffc3601126105565781519182828354610df48161116c565b9081845260209560019187600182169182600014610511575050600114610e28575050506104b192916104a2910385611079565b91908693508280527f290decd9548b62a8d60345a988386fc84ba6bc95484008f6362f93160ef3e5635b828410610e6b57505050820101816104a26104b161048f565b8054848a018601528895508794909301928101610e52565b8491346101d15760207ffffffffffffffffffffffffffffffffffffffffffffffffffffffffffffffffc3601126101d157357fffffffff0000000000000000000000000000000000000000000000000000000081168091036101d157602092507f01ffc9a7000000000000000000000000000000000000000000000000000000008114908115610f46575b8115610f1c575b5015158152f35b7f5b5e139f0000000000000000000000000000000000000000000000000000000091501483610f15565b7f80ac58cd0000000000000000000000000000000000000000000000000000000081149150610f0e565b919082519283825260005b848110610fba5750507fffffffffffffffffffffffffffffffffffffffffffffffffffffffffffffffe0601f8460006020809697860101520116010190565b602081830181015184830182015201610f7b565b6004359073ffffffffffffffffffffffffffffffffffffffff82168203610ff157565b600080fd5b6024359073ffffffffffffffffffffffffffffffffffffffff82168203610ff157565b7ffffffffffffffffffffffffffffffffffffffffffffffffffffffffffffffffc6060910112610ff15773ffffffffffffffffffffffffffffffffffffffff906004358281168103610ff157916024359081168103610ff1579060443590565b90601f7fffffffffffffffffffffffffffffffffffffffffffffffffffffffffffffffe0910116810190811067ffffffffffffffff8211176110ba57604052565b7f4e487b7100000000000000000000000000000000000000000000000000000000600052604160045260246000fd5b92919267ffffffffffffffff82116110ba576040519161113160207fffffffffffffffffffffffffffffffffffffffffffffffffffffffffffffffe0601f8401160184611079565b829481845281830111610ff1578281602093846000960137010152565b9080601f83011215610ff157816020611169933591016110e9565b90565b90600182811c921680156111b5575b602083101461118657565b7f4e487b7100000000000000000000000000000000000000000000000000000000600052602260045260246000fd5b91607f169161117b565b156111c657565b60646040517f08c379a000000000000000000000000000000000000000000000000000000000815260206004820152600e60248201527f4e4f545f415554484f52495a45440000000000000000000000000000000000006044820152fd5b600083815260206002815273ffffffffffffffffffffffffffffffffffffffff936040908580838620541695169485036113f55785169485156113985761127d9085331490811561137b575b8115611365575b506111bf565b838352600382528083208054908115611338577fffffffffffffffffffffffffffffffffffffffffffffffffffffffffffffffff8092019055858452600383528184209081549081146113385760010190558583526002825280832080547fffffffffffffffffffffffff0000000000000000000000000000000000000000908116871790915560049092528220805490911690557fddf252ad1be2c89b69c2b068fc378daa952ba7f163c4a11628f55a4df523b3ef9080a4565b6024857f4e487b710000000000000000000000000000000000000000000000000000000081526011600452fd5b9050878552600484528285205416331438611277565b8686526005855283862033875285528386205460ff169150611270565b6064838351907f08c379a00000000000000000000000000000000000000000000000000000000082526004820152601160248201527f494e56414c49445f524543495049454e540000000000000000000000000000006044820152fd5b6064838351907f08c379a00000000000000000000000000000000000000000000000000000000082526004820152600a60248201527f57524f4e475f46524f4d000000000000000000000000000000000000000000006044820152fd5b90816020910312610ff157517fffffffff0000000000000000000000000000000000000000000000000000000081168103610ff15790565b1561149157565b60646040517f08c379a000000000000000000000000000000000000000000000000000000000815260206004820152601060248201527f554e534146455f524543495049454e54000000000000000000000000000000006044820152fdfea26469706673582212205a9daba4e338bbd7cdd18c3dd2aca2a0664ba1fa1545f2c81f1d4a359bdc7a6c64736f6c63430008170033","linkReferences":{}},"methodIdentifiers":{"approve(address,uint256)":"095ea7b3","balanceOf(address)":"70a08231","getApproved(uint256)":"081812fc","initialize(string,string)":"4cd88b76","isApprovedForAll(address,address)":"e985e9c5","name()":"06fdde03","ownerOf(uint256)":"6352211e","safeTransferFrom(address,address,uint256)":"42842e0e","safeTransferFrom(address,address,uint256,bytes)":"b88d4fde","setApprovalForAll(address,bool)":"a22cb465","supportsInterface(bytes4)":"01ffc9a7","symbol()":"95d89b41","tokenURI(uint256)":"c87b56dd","transferFrom(address,address,uint256)":"23b872dd"},"storageLayout":{"storage":[{"astId":23262,"contract":"contracts/lib/forge-std/src/mocks/MockERC721.sol:MockERC721","label":"_name","offset":0,"slot":"0","type":"t_string_storage"},{"astId":23264,"contract":"contracts/lib/forge-std/src/mocks/MockERC721.sol:MockERC721","label":"_symbol","offset":0,"slot":"1","type":"t_string_storage"},{"astId":23295,"contract":"contracts/lib/forge-std/src/mocks/MockERC721.sol:MockERC721","label":"_ownerOf","offset":0,"slot":"2","type":"t_mapping(t_uint256,t_address)"},{"astId":23299,"contract":"contracts/lib/forge-std/src/mocks/MockERC721.sol:MockERC721","label":"_balanceOf","offset":0,"slot":"3","type":"t_mapping(t_address,t_uint256)"},{"astId":23350,"contract":"contracts/lib/forge-std/src/mocks/MockERC721.sol:MockERC721","label":"_getApproved","offset":0,"slot":"4","type":"t_mapping(t_uint256,t_address)"},{"astId":23356,"contract":"contracts/lib/forge-std/src/mocks/MockERC721.sol:MockERC721","label":"_isApprovedForAll","offset":0,"slot":"5","type":"t_mapping(t_address,t_mapping(t_address,t_bool))"},{"astId":23389,"contract":"contracts/lib/forge-std/src/mocks/MockERC721.sol:MockERC721","label":"initialized","offset":0,"slot":"6","type":"t_bool"}],"types":{"t_address":{"encoding":"inplace","label":"address","numberOfBytes":"20"},"t_bool":{"encoding":"inplace","label":"bool","numberOfBytes":"1"},"t_mapping(t_address,t_bool)":{"encoding":"mapping","key":"t_address","label":"mapping(address => bool)","numberOfBytes":"32","value":"t_bool"},"t_mapping(t_address,t_mapping(t_address,t_bool))":{"encoding":"mapping","key":"t_address","label":"mapping(address => mapping(address => bool))","numberOfBytes":"32","value":"t_mapping(t_address,t_bool)"},"t_mapping(t_address,t_uint256)":{"encoding":"mapping","key":"t_address","label":"mapping(address => uint256)","numberOfBytes":"32","value":"t_uint256"},"t_mapping(t_uint256,t_address)":{"encoding":"mapping","key":"t_uint256","label":"mapping(uint256 => address)","numberOfBytes":"32","value":"t_address"},"t_string_storage":{"encoding":"bytes","label":"string","numberOfBytes":"32"},"t_uint256":{"encoding":"inplace","label":"uint256","numberOfBytes":"32"}}},"id":30}