{"abi":[{"type":"constructor","inputs":[{"name":"charger","type":"address","internalType":"contract IFeeBankCharger"},{"name":"feeToken","type":"address","internalType":"contract IERC20"},{"name":"owner","type":"address","internalType":"address"}],"stateMutability":"nonpayable"},{"type":"function","name":"availableCredit","inputs":[{"name":"account","type":"address","internalType":"address"}],"outputs":[{"name":"","type":"uint256","internalType":"uint256"}],"stateMutability":"view"},{"type":"function","name":"deposit","inputs":[{"name":"amount","type":"uint256","internalType":"uint256"}],"outputs":[{"name":"","type":"uint256","internalType":"uint256"}],"stateMutability":"nonpayable"},{"type":"function","name":"depositFor","inputs":[{"name":"account","type":"address","internalType":"address"},{"name":"amount","type":"uint256","internalType":"uint256"}],"outputs":[{"name":"","type":"uint256","internalType":"uint256"}],"stateMutability":"nonpayable"},{"type":"function","name":"depositForWithPermit","inputs":[{"name":"account","type":"address","internalType":"address"},{"name":"amount","type":"uint256","internalType":"uint256"},{"name":"permit","type":"bytes","internalType":"bytes"}],"outputs":[{"name":"","type":"uint256","internalType":"uint256"}],"stateMutability":"nonpayable"},{"type":"function","name":"depositWithPermit","inputs":[{"name":"amount","type":"uint256","internalType":"uint256"},{"name":"permit","type":"bytes","internalType":"bytes"}],"outputs":[{"name":"","type":"uint256","internalType":"uint256"}],"stateMutability":"nonpayable"},{"type":"function","name":"gatherFees","inputs":[{"name":"accounts","type":"address[]","internalType":"address[]"}],"outputs":[{"name":"totalAccountFees","type":"uint256","internalType":"uint256"}],"stateMutability":"nonpayable"},{"type":"function","name":"owner","inputs":[],"outputs":[{"name":"","type":"address","internalType":"address"}],"stateMutability":"view"},{"type":"function","name":"renounceOwnership","inputs":[],"outputs":[],"stateMutability":"nonpayable"},{"type":"function","name":"rescueFunds","inputs":[{"name":"token","type":"address","internalType":"contract IERC20"},{"name":"amount","type":"uint256","internalType":"uint256"}],"outputs":[],"stateMutability":"nonpayable"},{"type":"function","name":"transferOwnership","inputs":[{"name":"newOwner","type":"address","internalType":"address"}],"outputs":[],"stateMutability":"nonpayable"},{"type":"function","name":"withdraw","inputs":[{"name":"amount","type":"uint256","internalType":"uint256"}],"outputs":[{"name":"","type":"uint256","internalType":"uint256"}],"stateMutability":"nonpayable"},{"type":"function","name":"withdrawTo","inputs":[{"name":"account","type":"address","internalType":"address"},{"name":"amount","type":"uint256","internalType":"uint256"}],"outputs":[{"name":"","type":"uint256","internalType":"uint256"}],"stateMutability":"nonpayable"},{"type":"event","name":"OwnershipTransferred","inputs":[{"name":"previousOwner","type":"address","indexed":true,"internalType":"address"},{"name":"newOwner","type":"address","indexed":true,"internalType":"address"}],"anonymous":false},{"type":"error","name":"ETHTransferFailed","inputs":[]},{"type":"error","name":"InsufficientBalance","inputs":[]},{"type":"error","name":"OwnableInvalidOwner","inputs":[{"name":"owner","type":"address","internalType":"address"}]},{"type":"error","name":"OwnableUnauthorizedAccount","inputs":[{"name":"account","type":"address","internalType":"address"}]},{"type":"error","name":"SafeTransferFailed","inputs":[]},{"type":"error","name":"SafeTransferFromFailed","inputs":[]},{"type":"error","name":"ZeroAddress","inputs":[]}],"bytecode":{"object":"0x60c03461013257601f61129338819003918201601f19168301916001600160401b03831184841017610137578084926060946040528339810103126101325780516001600160a01b0380821682036101325760208301519281841690818503610132576040015182811680910361013257801561011957600080546001600160a01b03198116831782556040519416907f8be0079c531659141344cd1fd0a4f28419497f9722a3daafe3b4186f6b6457e09080a31561010a575060a052608052604051611145908161014e82396080518181816102f90152818161091e01528181610dea0152610e75015260a0518181816102c60152818161071301528181610d8c0152610f4e0152f35b63d92e233d60e01b8152600490fd5b604051631e4fbdf760e01b815260006004820152602490fd5b600080fd5b634e487b7160e01b600052604160045260246000fdfe6040608081526004908136101561001557600080fd5b600091823560e01c8063205c2878146108785780632e1a7d4d146108395780632f4f21e2146107f257806332d323a5146107885780635886216f1461068c578063715018a6146105f057806378e3214f1461044e5780638da5cb5b146103f957806397a2cb6414610232578063b6b55f25146101f3578063bfe917341461018a5763f2fde38b146100a557600080fd5b346101865760207ffffffffffffffffffffffffffffffffffffffffffffffffffffffffffffffffc360112610186576100dc6108bf565b906100e5611024565b73ffffffffffffffffffffffffffffffffffffffff8092169283156101575750508254827fffffffffffffffffffffffff00000000000000000000000000000000000000008216178455167f8be0079c531659141344cd1fd0a4f28419497f9722a3daafe3b4186f6b6457e08380a380f35b908460249251917f1e4fbdf7000000000000000000000000000000000000000000000000000000008352820152fd5b8280fd5b5091346101f057817ffffffffffffffffffffffffffffffffffffffffffffffffffffffffffffffffc3601126101f0576024359067ffffffffffffffff82116101f057506020926101e16101e992369083016108e7565b913533610915565b9051908152f35b80fd5b5091346101f05760207ffffffffffffffffffffffffffffffffffffffffffffffffffffffffffffffffc3601126101f057506101e96020923533610e50565b50903461018657602092837ffffffffffffffffffffffffffffffffffffffffffffffffffffffffffffffffc3601126101f057823567ffffffffffffffff80821161018657366023830112156101865781850135908111610186576024943660248360051b850101116103f5579492916102aa611024565b8295839473ffffffffffffffffffffffffffffffffffffffff807f000000000000000000000000000000000000000000000000000000000000000016935b858810610323578a8a8a61031d82337f0000000000000000000000000000000000000000000000000000000000000000611075565b51908152f35b9091929394959698838a60051b830101358381168091036103f15790818c928a5260018084528b8b2054908c51947f5886216f000000000000000000000000000000000000000000000000000000008652838a8701528589818d5afa9283156103e7578f908d946103ab575b600196508d5252818c8c205503019901969594939291906102e8565b94958092939450813d83116103e0575b6103c58183610cda565b810103126103dc57908e600195949392519361038f565b8b80fd5b503d6103bb565b8d513d8e823e3d90fd5b8880fd5b8380fd5b50503461044a57817ffffffffffffffffffffffffffffffffffffffffffffffffffffffffffffffffc36011261044a5773ffffffffffffffffffffffffffffffffffffffff60209254169051908152f35b5080fd5b50903461018657807ffffffffffffffffffffffffffffffffffffffffffffffffffffffffffffffffc36011261018657813573ffffffffffffffffffffffffffffffffffffffff8116908181036105ec57602435916104ab611024565b826104b4578580f35b80159081156105ce575b50156105ba575080471061059357838080809333611388f13d1561058e573d67ffffffffffffffff81116105625782519061052160207fffffffffffffffffffffffffffffffffffffffffffffffffffffffffffffffe0601f8401160183610cda565b81528460203d92013e5b1561053c5750505b38808080808580f35b517fb12d13eb000000000000000000000000000000000000000000000000000000008152fd5b6024856041867f4e487b7100000000000000000000000000000000000000000000000000000000835252fd5b61052b565b50517ff4d678b8000000000000000000000000000000000000000000000000000000008152fd5b9091506105c992503390611075565b610533565b73eeeeeeeeeeeeeeeeeeeeeeeeeeeeeeeeeeeeeeee915014386104be565b8480fd5b83346101f057807ffffffffffffffffffffffffffffffffffffffffffffffffffffffffffffffffc3601126101f057610627611024565b8073ffffffffffffffffffffffffffffffffffffffff81547fffffffffffffffffffffffff000000000000000000000000000000000000000081168355167f8be0079c531659141344cd1fd0a4f28419497f9722a3daafe3b4186f6b6457e08280a380f35b5091903461044a57602092837ffffffffffffffffffffffffffffffffffffffffffffffffffffffffffffffffc36011261018657836106c96108bf565b602473ffffffffffffffffffffffffffffffffffffffff9182865195869485937f5886216f00000000000000000000000000000000000000000000000000000000855216908301527f0000000000000000000000000000000000000000000000000000000000000000165afa92831561077d57809361074b575b505051908152f35b909192508382813d8311610776575b6107648183610cda565b810103126101f0575051903880610743565b503d61075a565b8251903d90823e3d90fd5b50346101865760607ffffffffffffffffffffffffffffffffffffffffffffffffffffffffffffffffc360112610186576107c06108bf565b926044359067ffffffffffffffff82116101f05750926107e86101e9926020953691016108e7565b9160243590610915565b50503461044a57807ffffffffffffffffffffffffffffffffffffffffffffffffffffffffffffffffc36011261044a576020906101e96108306108bf565b60243590610e50565b5091346101f05760207ffffffffffffffffffffffffffffffffffffffffffffffffffffffffffffffffc3601126101f057506101e96020923533610d4a565b50503461044a57807ffffffffffffffffffffffffffffffffffffffffffffffffffffffffffffffffc36011261044a576020906101e96108b66108bf565b60243590610d4a565b6004359073ffffffffffffffffffffffffffffffffffffffff821682036108e257565b600080fd5b9181601f840112156108e25782359167ffffffffffffffff83116108e257602083818601950101116108e257565b604051909391927f0000000000000000000000000000000000000000000000000000000000000000919083600060648214610c22575093600094918286959493604814610b60578060e014610b27578061010014610aec5780606014610a1657610160146109cc578185926004927f9fd5a6cf0000000000000000000000000000000000000000000000000000000086528386013701925af15b156109c0576109bd91610e50565b90565b6040513d6000823e3d90fd5b610164935061016091507f2b67b5700000000000000000000000000000000000000000000000000000000083526004830137826e22d473030f116ddee9f6b43ac78ba35af16109af565b5060209150604090610164947f2b67b570000000000000000000000000000000000000000000000000000000008552336004860152602485015260148160508601377fffffffffffffffffffffffffffffffffffffffffffffffffffffffffffffffff65ffffffffffff9080601484013560e01c0182166064870152601883013560e01c60848701523060a4870152601c83013560e01c011660c485015261010060e4850152816101048501528280820161012486013701610144830137826e22d473030f116ddee9f6b43ac78ba35af16109af565b5084915092610100610104947f8fcbaf0c00000000000000000000000000000000000000000000000000000000855260048501375af16109af565b508491509260e060e4947fd505accf00000000000000000000000000000000000000000000000000000000855260048501375af16109af565b50849150927f7fffffffffffffffffffffffffffffffffffffffffffffffffffffffffffffff610104947f8fcbaf0c00000000000000000000000000000000000000000000000000000000855233600486015230602486015260206008602883013592803560e01c60448901527fffffffffffffffffffffffffffffffffffffffffffffffffffffffffffffffff600482013560e01c016064890152600160848901528360ff1c601b0160a48901520160c48701371660e48401525af16109af565b945050908380937f7fffffffffffffffffffffffffffffffffffffffffffffffffffffffffffffff60e4947fd505accf00000000000000000000000000000000000000000000000000000000855233600486015230602486015260206024604483013592828160448a01377fffffffffffffffffffffffffffffffffffffffffffffffffffffffffffffffff8382013560e01c0160648901528360ff1c601b0160848901520160a48701371660c48401525af16109af565b90601f7fffffffffffffffffffffffffffffffffffffffffffffffffffffffffffffffe0910116810190811067ffffffffffffffff821117610d1b57604052565b7f4e487b7100000000000000000000000000000000000000000000000000000000600052604160045260246000fd5b6040517f85eda2de00000000000000000000000000000000000000000000000000000000815233600482015260248101839052600093929091602083604481887f000000000000000000000000000000000000000000000000000000000000000073ffffffffffffffffffffffffffffffffffffffff165af1928315610e45578593610e10575b506040610e0e93953381526001602052208281540390557f0000000000000000000000000000000000000000000000000000000000000000611075565b565b92506020833d602011610e3d575b81610e2b60209383610cda565b810103126105ec579151916040610dd1565b3d9150610e1e565b6040513d87823e3d90fd5b73ffffffffffffffffffffffffffffffffffffffff91828216908115610ffa576064937f00000000000000000000000000000000000000000000000000000000000000006000604051907f23b872dd000000000000000000000000000000000000000000000000000000008252336004830152306024830152846044830152602097889282855af19081610fd7575b5015610fad576000928352600185526040808420805484019055517f3ee5ef1f00000000000000000000000000000000000000000000000000000000815273ffffffffffffffffffffffffffffffffffffffff94909416600485015260248401919091528391839160449183917f0000000000000000000000000000000000000000000000000000000000000000165af19182156109c057600092610f8357505090565b90809250813d8311610fa6575b610f9a8183610cda565b810103126108e2575190565b503d610f90565b60046040517ff4059071000000000000000000000000000000000000000000000000000000008152fd5b90503d15610ff25750600160005114601f3d11165b38610edf565b3b1515610fec565b60046040517fd92e233d000000000000000000000000000000000000000000000000000000008152fd5b73ffffffffffffffffffffffffffffffffffffffff60005416330361104557565b60246040517f118cdaa7000000000000000000000000000000000000000000000000000000008152336004820152fd5b916044602092600092604051917fa9059cbb0000000000000000000000000000000000000000000000000000000083526004830152602482015282855af190816110ec575b50156110c257565b60046040517ffb7f5079000000000000000000000000000000000000000000000000000000008152fd5b90503d156111075750600160005114601f3d11165b386110ba565b3b151561110156fea26469706673582212207551edde13886c4d2df145aab0e358a278e87c254aea7138decf492aab6c1a9664736f6c63430008170033","linkReferences":{}},"methodIdentifiers":{"availableCredit(address)":"5886216f","deposit(uint256)":"b6b55f25","depositFor(address,uint256)":"2f4f21e2","depositForWithPermit(address,uint256,bytes)":"32d323a5","depositWithPermit(uint256,bytes)":"bfe91734","gatherFees(address[])":"97a2cb64","owner()":"8da5cb5b","renounceOwnership()":"715018a6","rescueFunds(address,uint256)":"78e3214f","transferOwnership(address)":"f2fde38b","withdraw(uint256)":"2e1a7d4d","withdrawTo(address,uint256)":"205c2878"},"storageLayout":{"storage":[{"astId":4914,"contract":"contracts/lib/cross-chain-swap/lib/limit-order-settlement/contracts/FeeBank.sol:FeeBank","label":"_owner","offset":0,"slot":"0","type":"t_address"},{"astId":3376,"contract":"contracts/lib/cross-chain-swap/lib/limit-order-settlement/contracts/FeeBank.sol:FeeBank","label":"_accountDeposits","offset":0,"slot":"1","type":"t_mapping(t_address,t_uint256)"}],"types":{"t_address":{"encoding":"inplace","label":"address","numberOfBytes":"20"},"t_mapping(t_address,t_uint256)":{"encoding":"mapping","key":"t_address","label":"mapping(address => uint256)","numberOfBytes":"32","value":"t_uint256"},"t_uint256":{"encoding":"inplace","label":"uint256","numberOfBytes":"32"}}},"id":27}